:04000000BFEF3AF024
:1075240092680D0EC16EB50EC06E000EC46E000ED4
:10753400C36E12003F0006005B004F0066006D0042
:107544007C0047007F00670077007C0039005E0004
:107554007900710001500302F3CF05F0F4CF06F077
:1075640001500402F350062602500302F35006268B
:1075740005C001F006C002F01200380EF66E750E5A
:10758400F76E000EF86E00EE60F010EE20F00900C9
:10759400F5CFEEFFE550E150FAE1496A486A476ADF
:1075A400466A456A446A0001E5EF3CF001C003F015
:1075B400D8900336D89003363C0E0316C250C30B42
:1075C4000310C26EC2B2E9EF3AF0EDEF3AF0036A8B
:1075D400032AEEEF3AF0036A010E046E032AF5EF74
:1075E4003AF0D8900436032EF3EF3AF0C2B0FDEF30
:1075F4003AF001EF3BF0056A052A02EF3BF0056A19
:10760400010E066E052A09EF3BF0D8900636052ECA
:1076140007EF3BF006500410C212C2B214EF3BF065
:1076240016EF3BF00FEF3BF0C350C4CF03F0046AF6
:1076340003C004F0036A0310076E0450086E07C009
:1076440001F008C002F01200000E066E04BE2FEF17
:107654003BF02DEF3BF035EF3BF0036C041ED8B04C
:10766400042A010E066E02BE3CEF3BF03AEF3BF0FB
:1076740042EF3BF0016C021ED8B0022A010E061A3A
:10768400000E086E000E076E03500410D8B44DEFC0
:107694003BF04FEF3BF077EF3BF0010E056E57EFF9
:1076A4003BF0D89003360436052A04AE5CEF3BF079
:1076B4005EEF3BF053EF3BF0D890073608360350AB
:1076C400015C04500258D8A06AEF3BF06CEF3BF029
:1076D40071EF3BF00350015E0450025A0780D890CA
:1076E40004320332052E5EEF3BF00650D8B47DEF32
:1076F4003BF07FEF3BF083EF3BF0076C081ED8B004
:10770400082A07C001F008C002F0120032343334F2
:10771400396E3950D8A491EF3BF093EF3BF09DEFD5
:107724003BF0000E306E000E316E000E326E000E15
:10773400336E0AEF3CF030C034F031C035F032C063
:1077440036F033C037F0200EADEF3BF0D89037322F
:10775400363235323432E82EA8EF3BF03450386EEE
:10776400328EFF0E3016FF0E3116FF0E3216000E4B
:107774003316960E395E39BEC4EF3BF0C2EF3BF0D0
:10778400DAEF3BF03950800A970FD8B0CCEF3BF0DA
:10779400CEEF3BF0D0EF3BF093EF3BF0D890333299
:1077A400323231323032393ED0EF3BF0F2EF3BF03F
:1077B4001F0E3964E0EF3BF0E2EF3BF0EAEF3BF001
:1077C40093EF3BF0D89030363136323633363906C3
:1077D4003950D8A4F0EF3BF0F2EF3BF0E4EF3BF08C
:1077E4003850D8B4F8EF3BF0FAEF3BF002EF3CF03E
:1077F400331E321E311E306C000E312232223322EF
:1078040030C030F031C031F032C032F033C033F028
:107814001200116E1150D8B412EF3CF014EF3CF08A
:1078240036EF3CF00CBE1BEF3CF019EF3CF036EFAA
:107834003CF009C00DF00AC00EF00BC00FF00CC0F4
:1078440010F00D1E0E1E0F1E101E0D2A000E0E220D
:107854000F2210220DC013F00EC014F00FC015F04B
:1078640010C016F03EEF3CF009C013F00AC014F04B
:107874000BC015F00CC016F009500A100B100C10B8
:10788400D8A447EF3CF049EF3CF053EF3CF0000E36
:10789400096E000E0A6E000E0B6E000E0C6EE4EF05
:1078A4003CF0960E126E5DEF3CF0122AD890163220
:1078B400153214321332000E13140D6E000E14140C
:1078C4000E6E000E15140F6EFE0E1614106E0D5073
:1078D4000E100F101010D8A472EF3CF074EF3CF0AF
:1078E40057EF3CF082EF3CF0122A010E1326000EF3
:1078F400142215221622D89016321532143213325D
:10790400000E13140D6E000E14140E6E000E1514DA
:107914000F6EFF0E1614106E0D500E100F10101077
:10792400D8A497EF3CF099EF3CF076EF3CF0A1EF50
:107934003CF01206D890133614361536163615BE9A
:10794400A6EF3CF0A8EF3CF0B0EF3CF0020E126062
:10795400AEEF3CF0B0EF3CF09BEF3CF012B0B5EF73
:107964003CF0B7EF3CF0B8EF3CF0159ED8901232E3
:1079740012C00DF00E6A0F6A106A0DC010F00F6A83
:107984000E6A0D6A0D5013120E5014120F50151278
:10799400105016121150D8B4D2EF3CF0D4EF3CF092
:1079A400DCEF3CF00CBEDBEF3CF0D9EF3CF0DCEF5D
:1079B4003CF0168E13C009F014C00AF015C00BF089
:1079C40016C00CF01200000E936EF00E956E92EC41
:1079D4003AF0000E026E000E016ED8EC3AF001C0CF
:1079E40042F002C043F0000E026E010E016ED8ECAC
:1079F4003AF001C040F002C041F0140E1B6EAE0E0E
:107A04001C6E230E1D6E410E1E6E000E046E020EC1
:107A1400036E40504224016E41504320026E26EC16
:107A24003BF001C009F002C00AF0000E0ABEFF0ECE
:107A34000B6E0C6E010E0BEC3CF009C017F00AC083
:107A440018F00BC019F00CC01AF033EC3EF017C05C
:107A540030F018C031F019C032F01AC033F088EC9D
:107A64003BF030C03EF031C03FF03EC001F03FC0BB
:107A740002F0000E046E0A0E036E26EC3BF001C009
:107A84003CF002C03DF0D8903C34D96E3D34DA6EFF
:107A9400600ED926000EDA22DF508A6E8C908C821A
:107AA400020E3B6E450E3A6EAA0EE82EFED73A2E13
:107AB400FCD73B2EFAD73CC001F03DC002F0FF0ECC
:107AC400046EF60E036EACEC3AF03E500124486EA0
:107AD4003F500220496ED8904834D96E4934DA6E4A
:107AE400600ED926000EDA22DF508A6E8C808C92CA
:107AF400020E3B6E450E3A6EAA0EE82EFED73A2EC3
:107B0400FCD73B2EFAD783AE8AEF3DF08CEF3DF0E5
:107B140099EF3DF0010E4624466E000E4720476E55
:107B240083BE97EF3DF099EF3DF092EF3DF0820E6A
:107B34003A6EDE0EE82EFED73A2EFCD746044710E6
:107B4400D8A4A7EF3DF0A9EF3DF0AAEF3DF08C8655
:107B5400410E3A6EEE0EE82EFED73A2EFCD700D038
:107B6400020E46184710D8A4BAEF3DF0BCEF3DF022
:107B7400C1EF3DF0000E476E000E466E8C96410E2E
:107B84003A6EEE0EE82EFED73A2EFCD700D03FBE5A
:107B9400D7EF3DF03F5007E10B0E3E5CD8B0D5EF78
:107BA4003DF0D7EF3DF0DDEF3DF08C96000E476ED3
:107BB400000E466E8C84000E026E000E016ED8EC30
:107BC4003AF001C03AF002C03BF0000E026E010E22
:107BD400016ED8EC3AF001503A5C446E02503B58C6
:107BE400456E45BEFAEF3DF0F8EF3DF0FEEF3DF097
:107BF400446C451ED8B0452A45BE0AEF3EF04550B8
:107C040009E1640E445CD8A00AEF3EF00CEF3EF0AC
:107C140012EF3EF08C96000E476E000E466E8C847A
:107C24003FBE1EEF3EF03F5009E10B0E3E5CD8A074
:107C34001EEF3EF020EF3EF0EBEF3CF045BE2EEFA2
:107C44003EF0455007E1640E445CD8B02CEF3EF0A2
:107C54002EEF3EF0EBEF3CF08C94EBEF3CF000EFBA
:107C640000F01A50800B276E1A501A242E6E19AE8B
:107C74003EEF3EF040EF3EF041EF3EF02E802E50BE
:107C8400D8B447EF3EF049EF3EF05EEF3EF02E28C9
:107C9400D8A44FEF3EF051EF3EF059EF3EF0000E06
:107CA400176E000E186E000E196E000E1A6E198EE5
:107CB400000E1A6E66EF3EF0000E176E000E186E80
:107CC400000E196E000E1A6E1E50800B271A1E50DD
:107CD4001E242F6E1DAE71EF3EF073EF3EF074EF75
:107CE4003EF02F802F50D8B47AEF3EF07CEF3EF078
:107CF40091EF3EF02F28D8A482EF3EF084EF3EF0BF
:107D04008CEF3EF0000E1B6E000E1C6E000E1D6EFE
:107D1400000E1E6E1D8E000E1E6E99EF3EF0000EBC
:107D24001B6E000E1C6E000E1D6E000E1E6E1B5090
:107D34001C101D101E10D8A4A2EF3EF0A4EF3EF0BC
:107D4400BCEF3EF0000E176E000E186E000E196E9A
:107D5400000E1A6E800E19127F0E1A1227501A1274
:107D640017C017F018C018F019C019F01AC01AF08B
:107D7400FFEF3FF02E50D8A4C2EF3EF0C4EF3EF028
:107D8400CEEF3EF0000E176E000E186E000E196E48
:107D9400000E1A6EFFEF3FF02F502EC01FF0206A26
:107DA4001F5E000E205A7F0E1F24286E000E202016
:107DB400296E17C023F018C024F019C025F01AC08A
:107DC40026F0000E176E000E186E000E196E000ECF
:107DD4001A6E000E2A6E000E2B6E000E2C6E000E14
:107DE4002D6E000E2F6E2FEF3FF02F50D8B4FDEF05
:107DF4003EF0FFEF3EF016EF3FF0D89023362436E6
:107E040025362636D8901736183619361A362DAE3A
:107E14000EEF3FF010EF3FF011EF3FF01780D890D6
:107E24002A362B362C362D361B50235C1C502458F6
:107E34001D5025581E502658D8A023EF3FF025EF9B
:107E44003FF02EEF3FF02D8C1B50235E1C50245A24
:107E54001D50255A1E50265A2F2A190E2F6435EF0D
:107E64003FF037EF3FF0F7EF3EF02350241025109A
:107E74002610D8B440EF3FF042EF3FF05AEF3FF006
:107E84002A805AEF3FF0D8901736183619361A362A
:107E94002DAE4FEF3FF051EF3FF052EF3FF0178020
:107EA400D8902A362B362C362D362806D8A029060B
:107EB40019AE5FEF3FF061EF3FF045EF3FF0000E8A
:107EC4002F6E2DAE68EF3FF06AEF3FF08EEF3FF07C
:107ED400FF0E2A141F6EFF0E2B14206EFF0E2C149F
:107EE400216E7F0E2D14226E1F502010211022109F
:107EF400D8B47FEF3FF081EF3FF085EF3FF0010E04
:107F04002F6E8EEF3FF017A08AEF3FF08CEF3FF01B
:107F14008EEF3FF081EF3FF02F50D8B494EF3FF055
:107F240096EF3FF0BAEF3FF0010E1726000E18222D
:107F340019221A221AA0A1EF3FF0A3EF3FF0BAEFE3
:107F44003FF017C01FF018C020F019C021F01AC06C
:107F540022F022342232213220321F321FC017F085
:107F640020C018F021C019F022C01AF0284A292A8A
:107F740029BEC5EF3FF0295008E12828D8A0C5EF55
:107F84003FF0C7EF3FF0D2EF3FF0000E296E2868B4
:107F9400000E176E000E186E000E196E000E1A6E8B
:107FA40029BEDFEF3FF0295006E12804D8B0DDEF09
:107FB4003FF0DFEF3FF0EDEF3FF0000E296E000ED3
:107FC400286E000E176E000E186E000E196E000E4D
:107FD4001A6E000E276E28C02EF02EA0F4EF3FF08C
:107FE400F6EF3FF0F9EF3FF0198EFAEF3FF0199EEC
:0C7FF400D8902E301A6EB0EF3EF0120054
:020000040020DA
:08000000FFFFFFFFFFFFFFFF00
:020000040030CA
:0E000000000C1F1FFF8385FF0FC00FE00F4095
:00000001FF
